:100000000C9441000C944B000C944B000C944B004E
:100010000C944B000C944B000C944B000C944B0034
:100020000C944B000C944B000C944B000C944B0024
:100030000C944B000C944B000C944B000C944B0014
:100040000C944B000C944B000C944B000C944B0004
:100050000C944B00DB00DD00DD00DD00DD00DD0089
:10006000DD00D800DD00DD00DD00DD00DD00D600B4
:10007000BB00BE00C100C400C700CA00CD00D00054
:10008000D30011241FBECFE5D4E0DEBFCDBF0E9458
:10009000DE000C94E9000C94000014BA8FEF85BBCD
:1000A00081BB82BB8ABB61E070E040E050E082B37C
:1000B0009B01042E02C0220F331F0A94E2F7922FF5
:1000C0009095892382BB83B38D3FA9F08E3F19F0B1
:1000D0008B3FA9F522C082B38B3FE9F118F4873F2B
:1000E00041F02DC08D3F19F08E3F99F128C084E377
:1000F00008958AE2089582B38B3F59F018F4873F40
:1001000051F01DC08D3F19F08E3F39F118C085E3C5
:10011000089588E3089580E3089582B38B3F59F0F2
:1001200018F4873F51F00BC08D3F19F08E3FB9F0A6
:1001300006C086E3089589E3089583E2089582B3B3
:10014000282B22BB4F5F5F4F4430510509F0AFCFE2
:10015000ACCF81E3089587E3089582E3089583E3B4
:10016000089590E0FC01B397E731F10530F5E65DC5
:10017000FF4F0C94E30081E08BBB089582E08BBBC2
:10018000089583E08BBB089584E08BBB089585E0E0
:100190008BBB089586E08BBB089587E08BBB0895E9
:1001A00088E08BBB089589E08BBB08951BBA089546
:1001B0008AE08BBB08958BE08BBB08950E944D00B5
:1001C0000E94B100FBCFEE0FFF1F0590F491E02DD0
:0601D0000994F894FFCF32
:00000001FF
